{
  "contractName": "FlightSuretyData",
  "abi": [
    {
      "inputs": [],
      "payable": true,
      "stateMutability": "payable",
      "type": "constructor"
    },
    {
      "payable": true,
      "stateMutability": "payable",
      "type": "fallback"
    },
    {
      "constant": true,
      "inputs": [],
      "name": "isOperational",
      "outputs": [
        {
          "name": "",
          "type": "bool"
        }
      ],
      "payable": false,
      "stateMutability": "view",
      "type": "function"
    },
    {
      "constant": false,
      "inputs": [
        {
          "name": "mode",
          "type": "bool"
        }
      ],
      "name": "setOperatingStatus",
      "outputs": [],
      "payable": false,
      "stateMutability": "nonpayable",
      "type": "function"
    },
    {
      "constant": false,
      "inputs": [
        {
          "name": "airline",
          "type": "address"
        },
        {
          "name": "endorsingAirline",
          "type": "address"
        }
      ],
      "name": "registerAirline",
      "outputs": [
        {
          "name": "success",
          "type": "bool"
        },
        {
          "name": "votes",
          "type": "uint256"
        }
      ],
      "payable": false,
      "stateMutability": "nonpayable",
      "type": "function"
    },
    {
      "constant": false,
      "inputs": [
        {
          "name": "airline",
          "type": "address"
        },
        {
          "name": "flight",
          "type": "string"
        },
        {
          "name": "departureTimestamp",
          "type": "uint256"
        }
      ],
      "name": "registerFlight",
      "outputs": [
        {
          "name": "",
          "type": "bool"
        }
      ],
      "payable": false,
      "stateMutability": "nonpayable",
      "type": "function"
    },
    {
      "constant": false,
      "inputs": [
        {
          "name": "flightKey",
          "type": "bytes32"
        },
        {
          "name": "statusCode",
          "type": "uint8"
        }
      ],
      "name": "setFlightStatus",
      "outputs": [
        {
          "name": "",
          "type": "uint8"
        }
      ],
      "payable": false,
      "stateMutability": "nonpayable",
      "type": "function"
    },
    {
      "constant": false,
      "inputs": [
        {
          "name": "airline",
          "type": "address"
        },
        {
          "name": "flight",
          "type": "string"
        },
        {
          "name": "timestamp",
          "type": "uint256"
        }
      ],
      "name": "buy",
      "outputs": [],
      "payable": true,
      "stateMutability": "payable",
      "type": "function"
    },
    {
      "constant": false,
      "inputs": [
        {
          "name": "passenger",
          "type": "address"
        },
        {
          "name": "airline",
          "type": "address"
        },
        {
          "name": "flight",
          "type": "string"
        },
        {
          "name": "departureTimestamp",
          "type": "uint256"
        }
      ],
      "name": "creditInsuree",
      "outputs": [
        {
          "name": "",
          "type": "bool"
        }
      ],
      "payable": false,
      "stateMutability": "nonpayable",
      "type": "function"
    },
    {
      "constant": false,
      "inputs": [],
      "name": "pay",
      "outputs": [],
      "payable": false,
      "stateMutability": "nonpayable",
      "type": "function"
    }
  ],
  "bytecode": "0x60806040526001600060146101000a81548160ff021916908315150217905550336000806101000a81548173ffffffffffffffffffffffffffffffffffffffff021916908373ffffffffffffffffffffffffffffffffffffffff16021790555060016007819055506001600660008060009054906101000a900473ffffffffffffffffffffffffffffffffffffffff1673ffffffffffffffffffffffffffffffffffffffff1673ffffffffffffffffffffffffffffffffffffffff16815260200190815260200160002060000160006101000a81548160ff0219169083151502179055506100fb34610100640100000000026401000000009004565b610147565b6101228160015461012b640100000000026112d3179091906401000000009004565b60018190555050565b6000818301905082811015151561013e57fe5b80905092915050565b6114a7806101566000396000f30060806040526004361061008e576000357c0100000000000000000000000000000000000000000000000000000000900463ffffffff168063110466ed146100995780631b9265b8146100c85780633cc0be9c146100df57806373a416bd1461015c578063b1c46d22146101f9578063c7ba501814610251578063cd905dff146102d3578063fbde53c014610302575b6100973461035a565b005b3480156100a557600080fd5b506100c6600480360381019080803515159060200190929190505050610378565b005b3480156100d457600080fd5b506100dd610459565b005b3480156100eb57600080fd5b50610142600480360381019080803573ffffffffffffffffffffffffffffffffffffffff1690602001909291908035906020019082018035906020019190919293919293908035906020019092919050505061052c565b604051808215151515815260200191505060405180910390f35b34801561016857600080fd5b506101df600480360381019080803573ffffffffffffffffffffffffffffffffffffffff169060200190929190803573ffffffffffffffffffffffffffffffffffffffff1690602001909291908035906020019082018035906020019190919293919293908035906020019092919050505061075a565b604051808215151515815260200191505060405180910390f35b61024f600480360381019080803573ffffffffffffffffffffffffffffffffffffffff16906020019092919080359060200190820180359060200191909192939192939080359060200190929190505050610c51565b005b34801561025d57600080fd5b506102b2600480360381019080803573ffffffffffffffffffffffffffffffffffffffff169060200190929190803573ffffffffffffffffffffffffffffffffffffffff169060200190929190505050610d81565b60405180831515151581526020018281526020019250505060405180910390f35b3480156102df57600080fd5b506102e86111ba565b604051808215151515815260200191505060405180910390f35b34801561030e57600080fd5b5061033e6004803603810190808035600019169060200190929190803560ff1690602001909291905050506111d0565b604051808260ff1660ff16815260200191505060405180910390f35b61036f816001546112d390919063ffffffff16565b60018190555050565b6000809054906101000a900473ffffffffffffffffffffffffffffffffffffffff1673ffffffffffffffffffffffffffffffffffffffff163373ffffffffffffffffffffffffffffffffffffffff1614151561043c576040517f08c379a000000000000000000000000000000000000000000000000000000000815260040180806020018281038252601c8152602001807f43616c6c6572206973206e6f7420636f6e7472616374206f776e65720000000081525060200191505060405180910390fd5b80600060146101000a81548160ff02191690831515021790555050565b6000600260003373ffffffffffffffffffffffffffffffffffffffff1673ffffffffffffffffffffffffffffffffffffffff1681526020019081526020016000205490506000600260003373ffffffffffffffffffffffffffffffffffffffff1673ffffffffffffffffffffffffffffffffffffffff168152602001908152602001600020819055503373ffffffffffffffffffffffffffffffffffffffff166108fc829081150290604051600060405180830381858888f19350505050158015610528573d6000803e3d6000fd5b5050565b600080600460003373ffffffffffffffffffffffffffffffffffffffff1673ffffffffffffffffffffffffffffffffffffffff16815260200190815260200160002060009054906101000a900460ff1615156105f0576040517f08c379a00000000000000000000000000000000000000000000000000000000081526004018080602001828103825260188152602001807f43616c6c6572206973206e6f7420617574686f72697a6564000000000000000081525060200191505060405180910390fd5b600660008773ffffffffffffffffffffffffffffffffffffffff1673ffffffffffffffffffffffffffffffffffffffff16815260200190815260200160002060000160009054906101000a900460ff1615156106b4576040517f08c379a00000000000000000000000000000000000000000000000000000000081526004018080602001828103825260118152602001807f4169726c696e65206e6f7420666f756e6400000000000000000000000000000081525060200191505060405180910390fd5b6106f18686868080601f016020809104026020016040519081016040528093929190818152602001838380828437820191505050505050856112ef565b9050600160056000836000191660001916815260200190815260200160002060000160006101000a81548160ff02191690831515021790555082600560008360001916600019168152602001908152602001600020600101819055506001915050949350505050565b6000806000806000600460003373ffffffffffffffffffffffffffffffffffffffff1673ffffffffffffffffffffffffffffffffffffffff16815260200190815260200160002060009054906101000a900460ff161515610823576040517f08c379a00000000000000000000000000000000000000000000000000000000081526004018080602001828103825260188152602001807f43616c6c6572206973206e6f7420617574686f72697a6564000000000000000081525060200191505060405180910390fd5b6108608989898080601f016020809104026020016040519081016040528093929190818152602001838380828437820191505050505050886112ef565b9350601460056000866000191660001916815260200190815260200160002060000160019054906101000a900460ff1660ff16141515610908576040517f08c379a000000000000000000000000000000000000000000000000000000000815260040180806020018281038252601b8152602001807f4169726c696e652068617320636175736564206e6f2064656c6179000000000081525060200191505060405180910390fd5b60036000856000191660001916815260200190815260200160002060008b73ffffffffffffffffffffffffffffffffffffffff1673ffffffffffffffffffffffffffffffffffffffff1681526020019081526020016000205492506000831115156109db576040517f08c379a00000000000000000000000000000000000000000000000000000000081526004018080602001828103825260168152602001807f4e6f20696e737572616e6365207075726368617365640000000000000000000081525060200191505060405180910390fd5b610a596002610a4b6003806000896000191660001916815260200190815260200160002060008f73ffffffffffffffffffffffffffffffffffffffff1673ffffffffffffffffffffffffffffffffffffffff1681526020019081526020016000205461141490919063ffffffff16565b61144c90919063ffffffff16565b9150600260008b73ffffffffffffffffffffffffffffffffffffffff1673ffffffffffffffffffffffffffffffffffffffff168152602001908152602001600020549050610b088360036000876000191660001916815260200190815260200160002060008d73ffffffffffffffffffffffffffffffffffffffff1673ffffffffffffffffffffffffffffffffffffffff1681526020019081526020016000205461146290919063ffffffff16565b60036000866000191660001916815260200190815260200160002060008c73ffffffffffffffffffffffffffffffffffffffff1673ffffffffffffffffffffffffffffffffffffffff16815260200190815260200160002081905550610b7782826112d390919063ffffffff16565b600260008c73ffffffffffffffffffffffffffffffffffffffff1673ffffffffffffffffffffffffffffffffffffffff168152602001908152602001600020819055506000610bcf83836112d390919063ffffffff16565b111515610c44576040517f08c379a00000000000000000000000000000000000000000000000000000000081526004018080602001828103825260158152602001807f4e6f206372656469747320746f20706179206f7574000000000000000000000081525060200191505060405180910390fd5b5050505095945050505050565b60008034118015610c6a5750670de0b6b3a76400003411155b1515610cde576040517f08c379a00000000000000000000000000000000000000000000000000000000081526004018080602001828103825260118152602001807f50617920757020746f203120457468657200000000000000000000000000000081525060200191505060405180910390fd5b610d1b8585858080601f016020809104026020016040519081016040528093929190818152602001838380828437820191505050505050846112ef565b90503460036000836000191660001916815260200190815260200160002060003373ffffffffffffffffffffffffffffffffffffffff1673ffffffffffffffffffffffffffffffffffffffff168152602001908152602001600020819055505050505050565b600080600460003373ffffffffffffffffffffffffffffffffffffffff1673ffffffffffffffffffffffffffffffffffffffff16815260200190815260200160002060009054906101000a900460ff161515610e45576040517f08c379a00000000000000000000000000000000000000000000000000000000081526004018080602001828103825260188152602001807f43616c6c6572206973206e6f7420617574686f72697a6564000000000000000081525060200191505060405180910390fd5b60046007541015610fac576001600660008573ffffffffffffffffffffffffffffffffffffffff1673ffffffffffffffffffffffffffffffffffffffff16815260200190815260200160002060020160008673ffffffffffffffffffffffffffffffffffffffff1673ffffffffffffffffffffffffffffffffffffffff16815260200190815260200160002060006101000a81548160ff0219169083151502179055506007600081548092919060010191905055506001600660008673ffffffffffffffffffffffffffffffffffffffff1673ffffffffffffffffffffffffffffffffffffffff16815260200190815260200160002060000160006101000a81548160ff0219169083151502179055506001600660008673ffffffffffffffffffffffffffffffffffffffff1673ffffffffffffffffffffffffffffffffffffffff16815260200190815260200160002060010181905550600180809050915091506111b3565b6007546110056002600660008873ffffffffffffffffffffffffffffffffffffffff1673ffffffffffffffffffffffffffffffffffffffff1681526020019081526020016000206001015461141490919063ffffffff16565b101515611118576007600081548092919060010191905055506001600660008673ffffffffffffffffffffffffffffffffffffffff1673ffffffffffffffffffffffffffffffffffffffff16815260200190815260200160002060000160006101000a81548160ff0219169083151502179055506001600660008673ffffffffffffffffffffffffffffffffffffffff1673ffffffffffffffffffffffffffffffffffffffff168152602001908152602001600020600101600082825401925050819055506001600660008673ffffffffffffffffffffffffffffffffffffffff1673ffffffffffffffffffffffffffffffffffffffff16815260200190815260200160002060010154915091506111b3565b6001600660008673ffffffffffffffffffffffffffffffffffffffff1673ffffffffffffffffffffffffffffffffffffffff168152602001908152602001600020600101600082825401925050819055506000600660008673ffffffffffffffffffffffffffffffffffffffff1673ffffffffffffffffffffffffffffffffffffffff16815260200190815260200160002060010154915091505b9250929050565b60008060149054906101000a900460ff16905090565b6000600460003373ffffffffffffffffffffffffffffffffffffffff1673ffffffffffffffffffffffffffffffffffffffff16815260200190815260200160002060009054906101000a900460ff161515611293576040517f08c379a00000000000000000000000000000000000000000000000000000000081526004018080602001828103825260188152602001807f43616c6c6572206973206e6f7420617574686f72697a6564000000000000000081525060200191505060405180910390fd5b8160056000856000191660001916815260200190815260200160002060000160016101000a81548160ff021916908360ff16021790555081905092915050565b600081830190508281101515156112e657fe5b80905092915050565b6000838383604051602001808473ffffffffffffffffffffffffffffffffffffffff1673ffffffffffffffffffffffffffffffffffffffff166c0100000000000000000000000002815260140183805190602001908083835b60208310151561136d5780518252602082019150602081019050602083039250611348565b6001836020036101000a03801982511681845116808217855250505050505090500182815260200193505050506040516020818303038152906040526040518082805190602001908083835b6020831015156113de57805182526020820191506020810190506020830392506113b9565b6001836020036101000a038019825116818451168082178552505050505050905001915050604051809103902090509392505050565b6000808314156114275760009050611446565b818302905081838281151561143857fe5b0414151561144257fe5b8090505b92915050565b6000818381151561145957fe5b04905092915050565b600082821115151561147057fe5b8183039050929150505600a165627a7a723058205fbb88ed797b92feb130172087731a9987d617a2d0555ffa98574d1bf2980fa10029",
  "source": "// pragma solidity ^0.4.25;\npragma solidity ^0.4.24;\n\nimport \"../node_modules/openzeppelin-solidity/contracts/math/SafeMath.sol\";\n\ncontract FlightSuretyData {\n    using SafeMath for uint256;\n\n    /********************************************************************************************/\n    /*                                       DATA VARIABLES                                     */\n    /********************************************************************************************/\n\n    address private contractOwner;                                      // Account used to deploy contract\n    bool private operational = true;                                    // Blocks all state changes throughout the contract if false\n\n    uint private balance;                                               // define contract funds\n    mapping(address => uint256) private credits;                        // credit balance of an address\n    mapping(bytes32 => mapping(address => uint256)) private insurances; // individual insurance balance\n\n    mapping(address => bool) private authorizedContracts;\n\n    struct Flight {\n        bool isRegistered;\n        uint8 statusCode;\n        uint256 departureTimestamp;\n        uint256 updatedArrivalTimestamp;\n        address airline;\n    }\n    mapping(bytes32 => Flight) private flights;\n\n    struct Airline {\n        bool isRegistered;\n        uint256 invitations;\n        mapping(address => bool) hasInvited;\n        uint256 deposit;\n    }\n    mapping(address => Airline) private airlines;\n    \n    uint256 private airlineCount;\n\n    /********************************************************************************************/\n    /*                                       EVENT DEFINITIONS                                  */\n    /********************************************************************************************/\n\n    // The deploying account becomes contractOwner\n    // First airline gets registered and funded automatically\n    constructor() public payable {\n        contractOwner = msg.sender;\n        airlineCount = 1;\n        airlines[contractOwner].isRegistered = true;\n        fund(msg.value);\n    }\n\n    /********************************************************************************************/\n    /*                                       FUNCTION MODIFIERS                                 */\n    /********************************************************************************************/\n\n    // Modifier that requires the \"operational\" boolean variable to be \"true\"\n    modifier requireIsOperational() {\n        require(operational, \"Contract is currently not operational\");\n        _;\n    }\n\n    // Modifier that requires the \"ContractOwner\" account to be the function caller\n    modifier requireContractOwner() {\n        require(msg.sender == contractOwner, \"Caller is not contract owner\");\n        _;\n    }\n\n    // Added modifier that requires airline to be authorized (registered and funded)\n    modifier isCallerAuthorized() {\n        require(authorizedContracts[msg.sender], 'Caller is not authorized');\n        _;\n    }\n\n    /********************************************************************************************/\n    /*                                       UTILITY FUNCTIONS                                  */\n    /********************************************************************************************/\n\n    // Get operating status of contract and return A bool that is the current operating status \n    function isOperational() public view returns(bool) {\n        return operational;\n    }\n\n    // Sets contract operations on/off when operational mode is disabled, all write transactions except for this one will fail  \n    function setOperatingStatus(bool mode) external requireContractOwner {\n        operational = mode;\n    }\n\n    /********************************************************************************************/\n    /*                                     SMART CONTRACT FUNCTIONS                             */\n    /********************************************************************************************/\n\n    // Add an airline to the registration queue\n    // Can only be called from FlightSuretyApp contract\n\n    function registerAirline(address airline, address endorsingAirline) external isCallerAuthorized() returns(bool success, uint256 votes) {\n        // Only existing airline may register a new airline until there are at least four airlines registered\n        if (airlineCount < 4) {\n            airlines[endorsingAirline].hasInvited[airline] = true;\n            airlineCount++;\n            airlines[airline].isRegistered = true;\n            airlines[airline].invitations = 1;\n            return (true, 1);\n        } else {\n            // Registration of fifth and subsequent airlines requires multi-party consensus of 50% of registered airlines\n            if (airlines[airline].invitations.mul(2) >= airlineCount) {\n                airlineCount++;\n                airlines[airline].isRegistered = true;\n                airlines[airline].invitations += 1;\n                return (true, airlines[airline].invitations);\n            } else {\n                airlines[airline].invitations += 1;\n                return (false, airlines[airline].invitations);\n            }\n        }\n    }\n\n    // Register flight\n    function registerFlight(address airline, string flight, uint256 departureTimestamp\n        ) external isCallerAuthorized() returns(bool) {\n        require(airlines[airline].isRegistered, \"Airline not found\");\n        bytes32 flightKey = getFlightKey(airline, flight, departureTimestamp);\n        flights[flightKey].isRegistered = true;\n        flights[flightKey].departureTimestamp = departureTimestamp;\n        return true;\n    }\n\n    // Set flight status code\n    function setFlightStatus(bytes32 flightKey, uint8 statusCode) external isCallerAuthorized() returns(uint8) {\n        flights[flightKey].statusCode = statusCode;\n        return statusCode;\n    }\n\n    // Buy insurance for a flight\n    function buy(address airline, string flight, uint256 timestamp) external payable {\n        require(msg.value > 0 && msg.value <= 1 ether, 'Pay up to 1 Ether');\n        bytes32 flightKey = getFlightKey(airline, flight, timestamp);\n        insurances[flightKey][msg.sender] = msg.value;\n    }\n\n    // Credits payouts to insurees\n    function creditInsuree(address passenger, address airline, string flight, uint256 departureTimestamp\n    ) external isCallerAuthorized() returns(bool) {\n        bytes32 flightKey = getFlightKey(airline, flight, departureTimestamp);\n        require(flights[flightKey].statusCode == 20, 'Airline has caused no delay');\n        uint256 total = insurances[flightKey][passenger];\n        require(total > 0, \"No insurance purchased\");\n        // If flight is delayed due to airline fault, passenger receives credit of 1.5X the amount they paid\n        uint256 payout = insurances[flightKey][passenger].mul(3).div(2);\n        uint256 credit = credits[passenger];\n        insurances[flightKey][passenger] = insurances[flightKey][passenger].sub(total);\n        credits[passenger] = credit.add(payout);\n        require(credit.add(payout) > 0, 'No credits to pay out');\n    }\n\n    // Transfers eligible payout funds to insuree\n    function pay() external {\n        uint256 credit = credits[msg.sender];\n        credits[msg.sender] = 0;\n        msg.sender.transfer(credit);\n    }\n\n    // Initial funding for the insurance. Unless there are too many delayed flights\n    // resulting in insurance payouts, the contract should be self-sustaining\n    function fund(uint256 amount) internal {\n        balance = balance.add(amount);\n    }\n\n    function getFlightKey(address airline, string memory flight, uint256 timestamp) pure internal returns (bytes32) {\n        return keccak256(abi.encodePacked(airline, flight, timestamp));\n    }\n\n    // function isFlight(address airline, string flight, uint256 timestamp) external view returns(bool) {\n        // bytes32 flightKey = getFlightKey(airline, flight, timestamp);\n        // return flights[flightKey].isRegistered;\n    // }\n\n    // function isAirline(address candidateAirline) external view returns(bool) {\n        // Airline memory airline = airlines[candidateAirline];\n        // return airline.isRegistered && (airline.deposit >= 10 ether);\n    // }\n\n    // function isRegistered(address airline) public view returns(bool) {\n        // return airlines[airline].isRegistered;\n    // }\n\n    // function depositAirlineFee(address airline) external payable requireIsOperational() isCallerAuthorized() returns(bool) {\n        // require(airlines[airline].isRegistered, 'Not a registered airline');\n        // airlines[airline].deposit += msg.value;\n        // return true;\n    // }\n\n    // Fallback function for funding smart contract\n    function()external payable {\n        fund(msg.value);\n    }\n\n}\n",
  "sourcePath": "/Users/Laurette/Desktop/projectFolder/FlightSurety/contracts/FlightSuretyData.sol",
  "compiler": {
    "name": "solc",
    "version": "0.4.24+commit.e67f0147.Emscripten.clang"
  },
  "schemaVersion": "2.0.1",
  "updatedAt": "2020-04-06T18:08:42.318Z"
}